:0400000067EF00F0B6
:100008005082FACF01F0FBCF02F0E9CF03F0EACF3C
:1000180004F0E1CF05F0E2CF06F0D9CF07F0DACF50
:1000280008F0F3CF09F0F4CF0AF0F6CF0BF0F7CFD2
:100038000CF0F8CF0DF0F5CF0EF09EAA1AD0AECF87
:100048000FF0020E0F18D8A402D0000E3E6E030E59
:100058000F18D8A403D0010E0101D16F3E50010D35
:100068003F0EF324D96E000EF420DA6E0FC0DFFFC6
:100078003E2AF0A20AD082BA82AA06D082BA82AAFE
:1000880003D0000E0101D16FF0920EC0F5FF0DC034
:10009800F8FF0CC0F7FF0BC0F6FF0AC0F4FF09C059
:1000A800F3FF08C0DAFF07C0D9FF06C0E2FF05C0AA
:1000B800E1FF04C0EAFF03C0E9FF02C0FBFF01C083
:0A00C800FAFF5092110014EF0CF043
:100300000001000A006400E8031027435320494E0F
:10031000434F525245435420256400435320434FDA
:10032000525245435420256400504C203D20256402
:100330002025303264005052203D20256420253095
:1003400032640000720ED36ED3A4FED7000E0101FA
:10035000B46F000EB36F000E0101B66F000EB56FE3
:10036000000E0101B86F000EB76F000E0101BA6FE9
:10037000000EB96F000E0101BC6F000EBB6F000EC6
:100380000101BE6F000EBD6F000E0001F96FC70EB8
:10039000F86F000E0101BF6F010E0101C06F790EF1
:1003A0000101C16F0F0E0101C26F780E0101C36F11
:1003B0000F0E0101C46F000E0101C56FF8C0C6F138
:1003C000F9C0C7F1000E0101C86F010E0101C96F2C
:1003D000770E0101CA6F0F0E0101CB6F760E01017E
:1003E000CC6F0F0E0101CD6F020E0101CE6FF8C070
:1003F000CFF1F9C0D0F150EC0CF06BEC0CF0CFEC7D
:1004000008F032EC0CF05EEC0CF023EC0CF094866F
:10041000AE50AE50AE509D8AF28CF28EF088000E37
:100420000001FC6F000EFB6F300E0001FF6F380EF5
:100430000001FA6F490E0001F76F000E0101B06F65
:10044000000E0101B26F000EB16F030E0101D16FFA
:10045000BF0E296E010E2A6EC80E2B6E010E2C6E79
:10046000010E2D6EEEEC0AF0030E0101D119D8A495
:100470008FD1BF0E256E010E266EC80E276E010E9F
:10048000286E29EC0AF084D1B30E226E010E236E81
:1004900041EC07F0840E316E010E326E940E336E15
:1004A000010E346EB30E356E010E366E3EEC09F061
:1004B000B3C139F0B4C13AF0391E3A1E394A3A2A6A
:1004C0000101B55139240001FB6F0101B6513A20F9
:1004D0000001FC6F0101B3510101B511396E010139
:1004E000B4510101B6113A6E3ABE0BD03A5004E154
:1004F000B50E395CD8A005D0000E0001FE6F320E9B
:1005000004D0000E0001FE6F0A0EFD6FFDC039F031
:10051000FEC03AF0391E3A1E394A3A2A0001FB5110
:10052000395C3A50800A3B6E0001FC51800A3B580E
:10053000D8A041D00101B005D8B430D0BF0E256E8F
:10054000010E266EC80E276E010E286E29EC0AF0E9
:10055000B1C139F0B2C13AF0D89039363A367F0E8F
:100560003924106E000E3A20116EB1C13BF0B2C1B9
:100570003CF0D8903B363C36000E3B24126E010E08
:100580003C20136EB0C114F0B1C115F0B2C116F029
:1005900058EC0AF010C0B1F111C0B2F1BF0E296ED3
:1005A000010E2A6EC80E2B6E010E2C6EFFC02DF0B0
:1005B000CDEC0AF0EAD00001FD510001FB5D000125
:1005C000FC51800A396E0001FE51800A3958D8A0CA
:1005D00043D0020E0101B019D8B430D0BF0E256E41
:1005E000010E266EC80E276E010E286E29EC0AF049
:1005F000B1C139F0B2C13AF0D89039363A367F0EEF
:100600003924106E000E3A20116EB1C13BF0B2C118
:100610003CF0D8903B363C36000E3B24126E010E67
:100620003C20136EB0C114F0B1C115F0B2C116F088
:1006300058EC0AF010C0B1F111C0B2F1BF0E296E32
:10064000010E2A6EC80E2B6E010E2C6EFFC02DF00F
:10065000ACEC0AF0020E9AD00101B6BF56D00101EF
:10066000B65105E1780E0101B55DD8A04ED001016B
:10067000B4BF4BD00101B45105E1780E0101B35D67
:10068000D8A043D0030E0101B019D8B430D0BF0EAA
:10069000256E010E266EC80E276E010E286E29ECFF
:1006A0000AF0B1C139F0B2C13AF0D89039363A36D1
:1006B0007F0E3924106E000E3A20116EB1C13BF04E
:1006C000B2C13CF0D8903B363C36000E3B24126E53
:1006D000010E3C20136EB0C114F0B1C115F0B2C1CF
:1006E00016F058EC0AF010C0B1F111C0B2F1BF0E13
:1006F000296E010E2A6EC80E2B6E010E2C6EFAC0EA
:100700002DF0EEEC0AF0030E41D00101B005D8B493
:1007100030D0BF0E256E010E266EC80E276E010E5C
:10072000286E29EC0AF0B1C139F0B2C13AF0D89084
:1007300039363A367F0E3924106E000E3A20116E8B
:10074000B1C13BF0B2C13CF0D8903B363C36000E14
:100750003B24126E010E3C20136EB0C114F0B1C1E7
:1007600015F0B2C116F058EC0AF010C0B1F111C08A
:10077000B2F1BF0E296E010E2A6EC80E2B6E010E4D
:100780002C6EFFC02DF0CDEC0AF0010E0101B06F10
:100790000101D151D8B478D60101D105D8A453D0E4
:1007A000BF0E256E010E266EC80E276E010E286E36
:1007B00029EC0AF0B1C139F0B2C13AF0D89039361B
:1007C0003A367F0E3924106E000E3A20116EB1C1F8
:1007D0003BF0B2C13CF0D8903B363C36000E3B2497
:1007E000126E010E3C20136EB0C114F0B1C115F0B1
:1007F000B2C116F058EC0AF010C0B1F111C0B2F15C
:100800000101B107D8A0B2073F0E186E000E196E95
:100810003F0E1A6E000E1B6EA1EC09F03F0E316EFA
:10082000000E326E780E336E010E346EA40E356EED
:10083000010E366EB1C137F0B2C138F018EC06F0D7
:10084000020E0101D16F020E0101D119D8A40CD6FC
:100850000101B2BF9AD0000ED76E000ED66E67D0DF
:10086000D8900101B135D96E0101B235DA6E7F0E33
:10087000D926000EDA22DE04DE10D8A40DD0BF0E79
:10088000296E010E2A6EC80E2B6E010E2C6EFFC053
:100890002DF0ACEC0AF04BD0D8900101B135D96EF7
:1008A0000101B235DA6E7F0ED926000EDA22020E71
:1008B000DE18DE10D8A40DD0BF0E296E010E2A6EF0
:1008C000C80E2B6E010E2C6EFFC02DF0CDEC0AF081
:1008D0002ED0D8900101B135D96E0101B235DA6E52
:1008E000000ED926010EDA22010EDBBE14D0010E55
:1008F000DB5004E1650EDE5CD8A00DD0BF0E296E82
:10090000010E2A6EC80E2B6E010E2C6EF7C02DF054
:100910000FEC0BF00CD0BF0E296E010E2A6EC80E24
:100920002B6E010E2C6EFAC02DF00FEC0BF0D65092
:10093000D7CF39F03A6A39C03AF0396A3912000E25
:100940003A12D8900101B135D96E0101B235DA6E93
:10095000000ED926010EDA223950DE5CDE50800A04
:100960003D6E3A50800A3D58D8B07AD7BF0E256EFA
:10097000010E266EC80E276E010E286E29EC0AF0B5
:100980000101B107D8A0B20763D7030E0101D16FEF
:10099000000E0101B26F000EB16F000E0101B06FC9
:1009A00063D5200E286E000E296E2FD1250E30182B
:1009B000D8B409D01CC0D9FF1DC0DAFF30C0DFFF9A
:1009C0001C4A1D2A22D1000E2F6E000E2E6E000E24
:1009D0002D6E03D02D841E4A1F2A1EC0F6FF1FC095
:1009E000F7FF0800F550300AD8B4F4D71EC0F6FF60
:1009F0001FC0F7FF0800F55041EC0CF0D8A032D032
:100A0000000E2F6E000E2E6E2EC010F02FC011F0B3
:100A1000000E136E0A0E126EF1EC0BF010C02EF0E9
:100A200011C02FF0D00E246EFF0E256E1EC0F6FFF3
:100A30001FC0F7FF0800F550266E276A24502626AF
:100A40002550272226502E2627502F221E4A1F2AA5
:100A50001EC0F6FF1FC0F7FF0800F55041EC0CF078
:100A6000D8B0D2D71EC0F6FF1FC0F7FF1E4A1F2AFC
:100A70000800F5CF30F03050000AD8B4D2D0640A64
:100A8000D8B403D00D0AD8A4C0D028C0D9FF29C03B
:100A9000DAFFDECF2BF0DDCF2CF0020E2826000E81
:100AA00029222CAE06D0030E2D122B6C2C1ED8B092
:100AB0002C2A010E306E050E3018D8B412D03050EA
:100AC000020D010EF324F66E030EF420F76E0900FA
:100AD000F5502B5C0900F5502C58D8A002D0302AD4
:100AE000EAD72E502F10D8B409D02DC024F0030E11
:100AF0002416D8B403D02E06D8A02F06800E30BE00
:100B00007F0E246E2E50305C2F50800A2458D8B0AF
:100B100007D030502E5E000E30BEFF0E2F5A04D08C
:100B2000000E2F6E000E2E6E2DA41ED02DC024F0B0
:100B3000030E2416D8B408D01CC0D9FF1DC0DAFF9C
:100B40002D0EDF6E1C4A1D2A2E502F10D8B42DD02A
:100B50001CC0D9FF1DC0DAFF300EDF6E1C4A1D2AF3
:100B60002E06D8A02F06F0D72E502F10D8B40FD0B5
:100B70001CC0D9FF1DC0DAFF200EDF6E1C4A1D2AE3
:100B80002E06D8A02F062E502F10D8A4F1D72DC096
:100B900024F0030E2416D8B408D01CC0D9FF1DC001
:100BA000DAFF2D0EDF6E1C4A1D2A30C02AF029D034
:100BB0002A50020D010EF324F66E030EF420F76E98
:100BC0000900F5CF12F00A00F5CF13F02BC010F09A
:100BD0002CC011F083EC0AF010C017F011C018F00F
:100BE000000E1A6E0A0E196E30EC0BF01750300F13
:100BF000306E1CC0D9FF1DC0DAFF30C0DFFF1C4AB9
:100C00001D2A2A062A28D8A4D3D71EC0F6FF1FC043
:100C1000F7FF1E4A1F2A0800F5CF30F03050D8A445
:100C2000C5D61CC0D9FF1DC0DAFF000EDF6E120052
:100C3000000E00017D6F000E7C6F37D020EE01F0BA
:100C40003150D9263250DA22DF500001606F060E93
:100C50000001616F0001D89060330001612FFAD765
:100C600000016005D8A410D020EE01F03150D92643
:100C70003250DA22DF50C90F0FD0314A322A12D057
:100C800000017C4B7D2B11D020EE01F03150D92694
:100C90003250DA22DF50D00F33C0D9FF34C0DAFF30
:100CA000DF6EEBD7334A342AEBD700017DBFC6D7BE
:100CB00000017D5105E10C0E00017C5DD8A0BED77E
:100CC000000E00017E6F050E00017E6501D04AD046
:100CD00000017E51020D33C060F034C061F0F3506A
:100CE00000016027F45000016123F40E000160252B
:100CF000D96EFF0E00016121DA6EDF500001626FD4
:100D0000000162510001646F636B00017E51020DAE
:100D100033C065F034C066F0F35000016527F4502D
:100D200000016623F50E00016525D96EFF0E000156
:100D30006621DA6EDF500001676F00016751000124
:100D40006313000E641335C0D9FF36C0DAFF63C0E9
:100D5000DEFF64C0DDFF020E3526000E36220001E4
:100D60007E2BB1D72FEEFCF03550D9263650DA2243
:100D7000DECF60F0DDCF61F02FEEFAF03550D926EE
:100D80003650DA22DECF62F0DDCF63F02FEEF8F0DE
:100D90003550D9263650DA22DECF64F0DDCF65F04B
:100DA0002FEEF6F03550D9263650DA22DECF66F037
:100DB000DDCF67F02FEEF4F03550D9263650DA2229
:100DC000DECF68F0DDCF69F0000166510001681BDD
:100DD000000167510001691B000164510001681B9B
:100DE000000165510001691B000162510001681B8F
:100DF000000163510001691B000160510001681985
:100E000000017A6F000161510001691900017B6FD7
:100E10002FEEFEF03550D9263650DA2200017A51F5
:100E2000DE181AE100017B51DE18D8A415D06A0E35
:100E30001C6E000E1D6E1B0E1E6E030E1F6E37C045
:100E400020F038C021F0D1EC04F06A0E166E000ECE
:100E5000176EABEC0BF012006A0E1C6E000E1D6ECE
:100E60000B0E1E6E030E1F6E37C020F038C021F02F
:100E7000D1EC04F06A0E166E000E176EABEC0BF0A0
:100E8000120020EE04F02250D9262350DA2210EE70
:100E900008F02250E1262350E222DECFE6FFDDCF2C
:100EA000E5FF20EE06F02250D9262350DA2210EE7C
:100EB0000AF02250E1262350E222DECFE6FFDDCF0A
:100EC000E5FF665067CF24F0256A24C025F0246A28
:100ED0002412000E251220EE04F02250D9262350B1
:100EE000DA2224C0DEFF25C0DDFF685069CF24F080
:100EF000256A24C025F0246A2412000E251220EE53
:100F000006F02250D9262350DA2224C0DEFF25C065
:100F1000DDFF20EE08F02250D9262350DA2210EE11
:100F200004F02250E1262350E222DE50E6181EE1B2
:100F3000DE50E618D8A41AD020EE04F02250D926AC
:100F40002350DA22010EDBBE07D0010EDB500EE18A
:100F5000C90EDE5CD8B00AD020EE04F02250D926AB
:100F60002350DA22000EDE6E000EDD6E20EE0AF057
:100F70002250D9262350DA2210EE06F02250E12624
:100F80002350E222DE50E6181EE1DE50E618D8A417
:100F90001AD020EE06F02250D9262350DA22010E74
:100FA000DBBE07D0010EDB500EE1C90EDE5CD8B00F
:100FB0000AD020EE06F02250D9262350DA22000E65
:100FC000DE6E000EDD6E20EE04F02250D926235096
:100FD000DA22DECF1EF0DDCF1FF051EC0BF022C085
:100FE000D9FF23C0DAFF1EC0DEFF1FC0DDFF20EEE9
:100FF00006F02250D9262350DA22DECF1EF0DDCFB4
:101000001FF051EC0BF020EE02F02250D9262350B5
:10101000DA221EC0DEFF1FC0DDFF120020EE01F04D
:101020001E50D9261F50DA22DE04D8A434D020EE78
:1010300007F01E50D9261F50DA22DECF20F0DDCF78
:1010400021F01EC0D9FF1FC0DAFFDF50226E2250F0
:10105000106E116A20EE07F01E50D9261F50DA22BA
:10106000DECF12F0DDCF13F0F1EC0BF010C016F074
:1010700011C017F0000E196E640E186EE7EC09F03F
:10108000161E171E164A172A20501624236E2150AA
:101090001720246E23D01EC0D9FF1FC0DAFFDF50F7
:1010A000206E2050106E116A20EE07F01E50D926D7
:1010B0001F50DA22DECF12F0DDCF13F0F1EC0BF08F
:1010C00010C016F011C017F0000E196E640E186EE5
:1010D000E7EC09F016C023F017C024F023C020F07D
:1010E00024C021F0D89020362136D89020362136E1
:1010F00020C023F021C024F020EE02F01E50D9269B
:101100001F50DA22DECF20F0DDCF21F020C0D9FF42
:1011100021C0DAFF23C0DFFF20EE04F01E50D926E5
:101120001F50DA22DECF20F0DDCF21F020C0D9FF22
:1011300021C0DAFF24503F0BDF6E20EE01F01E507D
:10114000D9261F50DA22DE04D8A414D020EE06F0EF
:101150001E50D9261F50DA22DF50206E010E216E5C
:10116000202A02D0D8902136202EFCD721508A1078
:101170008A6E120020EE06F01E50D9261F50DA2289
:10118000DF50206E010E216E202A02D0D890213629
:10119000202EFCD72150FF0A8A148A6E1200000EFE
:1011A000896E000E8B6E000E8C6E929C94909492C1
:1011B000949495909592270E166EF50EE82EFED714
:1011C000162EFCD700F0030E70EC0BF00D0E166E11
:1011D000FC0EE82EFED7162EFCD7030E70EC0BF09B
:1011E000850EE82EFED700F0030E70EC0BF0210EFA
:1011F000E82EFED700F0020E70EC0BF0210EE82E68
:10120000FED700F0000E146E000E136E280EC5EC13
:101210000BF0210EE82EFED700F0000E146E000E2B
:10122000136E080EC5EC0BF0210EE82EFED700F071
:10123000000E146E000E136E010EC5EC0BF0060EC0
:10124000166E300EE82EFED7162EFCD700D0000EFC
:10125000146E000E136E060EC5EC0BF0210EE82E78
:10126000FED700F0000E146E000E136E0E0EC5ECCD
:101270000BF0210EE82EFED700F0120004EC0CF06B
:1012800031C01CF032C01DF0360E1E6E030E1F6EF4
:1012900020EE02F03550D9263650DA22DECF20F08B
:1012A000DDCF21F0D6CF22F0236AD1EC04F033C099
:1012B0001CF034C01DF0290E1E6E030E1F6E35C0CB
:1012C000D9FF36C0DAFFDECF20F0DDCF21F0D7CF57
:1012D00022F0236AD1EC04F0000E176E010E166E98
:1012E0008FEC0BF031C016F032C017F0ABEC0BF006
:1012F000000E176E020E166E8FEC0BF033C016F058
:1013000034C017F0ABEC0BF0820E376EDE0EE82E19
:10131000FED7372EFCD7820E376EDE0EE82EFED7B4
:10132000372EFCD7820E376EDE0EE82EFED7372E14
:10133000FCD7820E376EDE0EE82EFED7372EFCD796
:10134000120004EC0CF0000E176E010E166E8FECFE
:101350000BF002D0184A192A18C0D9FF19C0DAFFB9
:10136000030EDE18D8B414D0F5D7000E146E010E9B
:10137000136E20EE01F01A50D9261B50DA22DF50EE
:10138000C5EC0BF0210EE82EFED700F01A4A1B2AFE
:10139000FE0E1C6EFF0E1D6E18C01EF019C01FF051
:1013A0001C501E261D501F22010E1A24206E000EF6
:1013B0001B20216E1E50205C1F502158D8A0D5D76D
:1013C000000E176E020E166E8FEC0BF01200000E60
:1013D0001B6E19AE06D0186C191ED8B0192A010E52
:1013E0001B6E17AE06D0166C171ED8B0172A010E4A
:1013F0001B1A000E1D6E000E1C6E18501910D8B46A
:101400001CD0010E1A6E04D0D890183619361A2A3C
:1014100019AEFAD7D8901C361D361850165C1950E4
:101420001758D8A005D01850165E1950175A1C80AE
:10143000D890193218321A2EEDD71B50D8B404D0D8
:101440001C6C1D1ED8B01D2A1CC016F01DC017F044
:1014500012000FD027C01EF028C01FF00EEC08F0BD
:10146000210EE82EFED700F027C0D9FF28C0DAFFF2
:10147000DF0627C0D9FF28C0DAFFDF50D8B410D06C
:10148000E9D725C01EF026C01FF00EEC08F0210E93
:10149000E82EFED700F025C0D9FF26C0DAFFDF0610
:1014A00025C0D9FF26C0DAFFDF50D8B41200E9D733
:1014B0001450D8B423D01450176E186A10C0D9FF36
:1014C00011C0DAFF17C0DEFF18C0DDFFD650D7CF3E
:1014D00017F0186A17C018F0176A1712000E1812C2
:1014E00012C0D9FF13C0DAFF17C0DEFF18C0DDFF3E
:1014F000154A162A000ED76E000ED66E15C010F0D3
:1015000016C011F01200000E166E000E156E12506D
:101510001310D8B41CD0010E146E04D0D89012361B
:101520001336142A13AEFAD7D89015361636125041
:10153000105C13501158D8A005D01250105E1350F3
:10154000115A1580D89013321232142EEDD715C0CF
:1015500010F016C011F0120020EE01F02950D9262B
:101560002A50DA22010EDF6E20EE01F02B50D92630
:101570002C50DA22000EDF6E29C025F02AC026F09A
:101580002DC027F0DCEC0BF02BC025F02CC026F092
:101590002DC027F0DCEC0BF0120020EE01F02950FA
:1015A000D9262A50DA22000EDF6E20EE01F02B50F1
:1015B000D9262C50DA22010EDF6E29C025F02AC070
:1015C00026F02DC027F0DCEC0BF02BC025F02CC052
:1015D00026F02DC027F0DCEC0BF0120020EE01F01D
:1015E0002950D9262A50DA22010EDF6E20EE01F0B2
:1015F0002B50D9262C50DA22010EDF6E29C025F09F
:101600002AC026F02DC027F0DCEC0BF02BC025F013
:101610002CC026F02DC027F0DCEC0BF0120020EEE1
:1016200001F02950D9262A50DA22000EDF6E20EE72
:1016300001F02B50D9262C50DA22000EDF6E29C083
:1016400025F02AC026F02DC027F0DCEC0BF02BC0D3
:1016500025F02CC026F02DC027F0DCEC0BF012009A
:1016600019501A10D8B418D0010E1B6E04D0D8909F
:1016700019361A361B2A1AAEFAD71950175C1A50A7
:101680001858D8A004D01950175E1A50185AD8907C
:101690001A3219321B2EF1D717C017F018C018F0E4
:1016A00012001EC016F01FC017F0000E196E3E0E7D
:1016B000186EE7EC09F016C020F017C021F021BE2B
:1016C0000AD0215004E1C90E205CD8A004D0000E3D
:1016D000216EC80E206E20C01EF021C01FF0120027
:1016E000126E12C010F0030E1016D8901034116E46
:1016F0008B50F90B11108B6E12C010F0D890103275
:10170000D8901032030E10168C50FC0B10108C6EFB
:1017100074EC0CF0030EE82EFED700F01200160455
:101720001710D8A407D0000E146E000E136E800E92
:10173000C5EC0BF0020E16181710D8A407D0000E37
:10174000146E000E136EC00EC5EC0BF0210EE82EC9
:10175000FED700F0120011D0000E146E010E136EB1
:1017600016C0D9FF17C0DAFFDF50C5EC0BF0164AE0
:10177000172A210EE82EFED700F016C0D9FF17C099
:10178000DAFFDF50D8B41200E7D7156E13B002D0DD
:10179000899C01D0898C15380F0B70EC0BF0060E6C
:1017A000E82EFED700D015500F0B70EC0BF0210E79
:1017B000E82EFED700F012000BD025C01EF026C088
:1017C0001FF00EEC08F025C0D9FF26C0DAFFDF2A93
:1017D00025C0D9FF26C0DAFF2750DE5CD8B0120042
:1017E000ECD710501202F3CF14F0F4CF15F01050D4
:1017F0001302F350152611501202F350152614C08F
:1018000010F015C011F01200000E146E000E136ED1
:10181000010EC5EC0BF0060E166E300EE82EFED74C
:10182000162EFCD700D012000101D16B00EE3EF065
:10183000120EEE6AE806FDE150905092000EF86E2E
:101840000001A2EF01F0000E936E000E7F6E800E7D
:101850007E6E6F0E6F6E000E6E6EC70E7B6E000E8C
:101860007A6E1200638C6350F00B0609636E628C13
:101870006250F00B0609626E000EB86E000EB96E73
:101880001200126E000E116E3A0E126005D02F0E6D
:10189000126402D0010E116E11C010F0103012004F
:1018A000D58ED59CD58AD596D550F80B0109D56E25
:1018B000D598000ED66E000ED76E12009450C00957
:1018C000946ECC0EAF6E000EB06EAA86AC84AB8860
:1018D000AB8EAC8A1200B79EB79CB79A180EB7129F
:1018E000B794B792B78012008B80030EE82EFED714
:0618F00000F08B901200D5
:020000040020DA
:08000000FFFFFFFFFFFFFFFF00
:020000040030CA
:0E000000FFC80F3E3C1D81FF0FC00FE00F40F8
:00000001FF
